S00C000041325F332E7372656313
S11300000C943E000C945B000C945B000C945B001D
S11300100C945B000C945B000C945B000C945B00F0
S11300200C945B000C945B000C945B000C945B00E0
S11300300C945B000C945B000C945B000C945B00D0
S11300400C945B000C945B000C945B000C945B00C0
S11300500C94E3000C94A1000C945B000C945B00E2
S11300600C945B000C945B000C945B000C945B00A0
S11300700C945B000C945B000C945B0011241FBE79
S1130080CFEFD8E0DEBFCDBF11E0A0E0B1E0E0E704
S1130090F2E002C005900D92A030B107D9F722E03A
S11300A0A0E0B1E001C01D92AA31B207E1F70E94BD
S11300B05D000C9436010C9400001092040187E05A
S11300C08093010110920501109202011092030124
S11300D0FFCFCF93C82F8A3019F48DE00E946900B6
S11300E09FB7907802C0992329F1809107018F3F2F
S11300F0D1F3F894E091060181E08E0F809306011C
S1130100F0E0E85FFE4FC083809107018F5F80932A
S11301100701809106018F3F11F410920601E1EC72
S1130120F0E0808180628083992339F0789480E0C4
S113013090E005C081E090E002C080E090E0CF91C3
S113014008951F920F920FB60F9211242F938F933D
S11301509F93EF93FF9380910701882329F1809166
S113016006012091070190E0821B91095AF4E09165
S1130170060180910701F0E0E81BF109E95FFD4FFA
S113018090810AC0E091060180910701F0E0E81B2C
S1130190F109E85FFE4F90818091070181508093BF
S11301A007019093C60005C0E1ECF0E080818F7DEB
S11301B08083FF91EF919F918F912F910F900FBEAC
S11301C00F901F9018951F920F920FB60F92112443
S11301D02F933F934F935F936F937F938F939F934B
S11301E0AF93BF93CF93EF93FF93C091C6008091D9
S11301F00001882349F0809107018F3F29F060E0D6
S113020070E08C2F0E94690080911902803120F0E7
S113021081E08093180218C0CD3009F4CAE0E0915F
S1130220070281E08E0F80930702F0E0E85FFD4F44
S1130230C083809119028F5F809319028091070215
S1130240803111F410920702FF91EF91CF91BF9189
S1130250AF919F918F917F916F915F914F913F915A
S11302602F910F900FBE0F901F901895F894FFCF09
S9030000FC
