S00C000041325F332E7372656313
S11300000C943E000C945B000C945B000C949600E2
S11300100C945B000C945B000C945B000C945B00F0
S11300200C945B000C945B000C945B000C945B00E0
S11300300C945B000C94FE000C945B000C945B002D
S11300400C945B000C945B000C945B000C945B00C0
S11300500C94C4010C9482010C945B000C945B001E
S11300600C945B000C945B000C945B000C945B00A0
S11300700C945B000C945B000C945B0011241FBE79
S1130080CFEFD8E0DEBFCDBF11E0A0E0B1E0E2E306
S1130090F4E002C005900D92A030B107D9F722E038
S11300A0A0E0B1E001C01D92AD31B207E1F70E94BA
S11300B02F010C9417020C9400008FEF8AB987B9B2
S11300C081B9109280008AE08093810087EE93E0EA
S11300D0909389008093880082E080936F0086BBB0
S11300E084B18C7F84B980E38093690084E08DBB04
S11300F08CBB78940895189B06C0199B04C083E0B8
S1130100809304010895189906C0199B04C082E0E5
S1130110809304010895189B06C0199904C081E0D6
S11301208093040108951092040108951F920F9280
S11301300FB60F9211248F9380910801811104C08E
S113014081E0809308010EC080910801813021F480
S113015082E08093080106C080910801823011F486
S1130160109208018F910F900FBE0F901F90189559
S113017080910401833011F488E088B980910401EE
S1130180823011F484E088B980910401813011F443
S113019082E088B980910401811102C081E088B9AC
S11301A080910801811103C088B1806288B980916F
S11301B00801813019F488B1806688B980910801FA
S11301C0823019F488B1806E88B908958091050150
S11301D0811108C0E5E0F1E0818182B91BB881E0BA
S11301E08083089580910501813039F4E5E0F1E0E0
S11301F0828182B981E08BB9108208951F920F9297
S11302000FB60F9211242F933F934F935F936F93E5
S11302107F938F939F93AF93BF93EF93FF930E942A
S1130220E600FF91EF91BF91AF919F918F917F91E4
S11302306F915F914F913F912F910F900FBE0F904F
S11302401F90189580910201811108C080910301CB
S1130250811104C00E947B000E94B80008950E948E
S11302605D001092040187E080930101109208015F
S1130270109202011092030180E090E0A0E096E069
S1130280A6E08093050190930601A09307010E94C4
S11302902201FDCFCF93C82F8A3019F48DE00E943C
S11302A04A019FB7907802C0992329F180910A01ED
S11302B08F3FD1F3F894E091090181E08E0F809390
S11302C00901F0E0E55FFE4FC08380910A018F5F72
S11302D080930A01809109018F3F11F41092090162
S11302E0E1ECF0E0808180628083992339F0789496
S11302F080E090E005C081E090E002C080E090E002
S1130300CF9108951F920F920FB60F9211242F933D
S11303108F939F93EF93FF9380910A01882329F190
S11303208091090120910A0190E0821B91095AF4FD
S1130330E091090180910A01F0E0E81BF109E65F10
S1130340FD4F90810AC0E091090180910A01F0E01B
S1130350E81BF109E55FFE4F908180910A0181500D
S113036080930A019093C60005C0E1ECF0E080811F
S11303708F7D8083FF91EF919F918F912F910F90AB
S11303800FBE0F901F9018951F920F920FB60F92E9
S113039011242F933F934F935F936F937F938F9386
S11303A09F93AF93BF93CF93EF93FF93C091C600F6
S11303B080910001882349F080910A018F3F29F040
S11303C060E070E08C2F0E944A0180911C02803111
S11303D020F081E080931B0218C0CD3009F4CAE0FC
S11303E0E0910A0281E08E0F80930A02F0E0E55F5B
S11303F0FD4FC08380911C028F5F80931C0280910B
S11304000A02803111F410920A02FF91EF91CF9108
S1130410BF91AF919F918F917F916F915F914F9118
S11304203F912F910F900FBE0F901F901895F89445
S1050430FFCFF8
S9030000FC
